:100000000C945E000C9486000C9486000C94700591
:100010000C9470050C9470050C9486000C9486006A
:100020000C9486000C9486000C9486000C94860038
:100030000C9486000C9486000C9486000C94860028
:100040000C9407040C9486000C94D5030C94AF0315
:100050000C9486000C9486000C9486000C94860008
:100060000C9451040C94860000000008000201006A
:100070000003040700000000000000000000000072
:10008000250028002B0000000000240027002A0083
:10009000040404040404040402020202020203032E
:1000A0000303030301020408102040800102040836
:1000B0001020010204081020C605340911241FBEB7
:1000C000CFEFD8E0DEBFCDBF11E0A0E0B1E0E0EBC4
:1000D000F8E102C005900D92A03AB107D9F723E0EC
:1000E000A0EAB1E001C01D92A439B207E1F710E027
:1000F000CDE5D0E004C02197FE010E94530ACC3523
:10010000D107C9F70E9423060C944B0C0C940000F5
:10011000E1E6F2E0A089B18982E08C93A485B585FF
:100120001C92A685B78580E18C93108EA489B58931
:1001300086E08C93A289B3898C9180618C93A2898B
:10014000B3898C9188608C93A289B3898C918068E3
:100150008C930288F389E02D80818F7D80830895C0
:10016000AF92BF92CF92DF92EF92FF920F931F93C5
:10017000CF93DF936C017B018B01040F151FEB0103
:100180005E01AE18BF08C017D10759F06991D601BA
:10019000ED91FC910190F081E02DC6010995892B2C
:1001A00079F7C501DF91CF911F910F91FF90EF90EB
:1001B000DF90CF90BF90AF90089580913F029091D3
:1001C0004002891B990B0895089508950895FC0134
:1001D000538D448D252F30E0842F90E0821B930BAC
:1001E000541710F0CF96089501970895FC01918D52
:1001F000828D981761F0A28DAE0FBF2FB11D5D9655
:100200008C91928D9F5F9F73928F90E008958FEFF6
:100210009FEF0895FC01918D828D981731F0828DAA
:10022000E80FF11D858D90E008958FEF9FEF089501
:10023000FC01918D228D892F90E0805C9F4F821B65
:1002400091098F739927089581E692E00E94180121
:1002500021E0892B09F420E0822F089580E090E0CE
:10026000892B29F00E94240181110C94000008952B
:10027000FC01A48DA80FB92FB11DA35ABF4F2C911B
:10028000848D90E001968F739927848FA689B78912
:100290002C93A089B1898C91837080648C93938D09
:1002A000848D981306C00288F389E02D80818F7DAC
:1002B00080830895EF92FF920F931F93CF93DF9364
:1002C000EC0181E0888F9B8D8C8D98131AC0E88992
:1002D000F989808185FF15C09FB7F894EE89FF8961
:1002E0006083E889F98980818370806480839FBFFF
:1002F00081E090E0DF91CF911F910F91FF90EF90FF
:100300000895F62E0B8D10E00F5F1F4F0F7311270E
:10031000E02E8C8D8E110CC00FB607FCFACFE88949
:10032000F989808185FFF5CFCE010E943801F1CF98
:10033000EB8DEC0FFD2FF11DE35AFF4FF0829FB7BD
:10034000F8940B8FEA89FB8980818062CFCFCF93AD
:10035000DF93EC01888D8823B9F0AA89BB89E889ED
:10036000F9898C9185FD03C0808186FD0DC00FB693
:1003700007FCF7CF8C9185FFF2CF808185FFEDCF11
:10038000CE010E943801E9CFDF91CF91089590E02E
:10039000FC01E859FF4F2491FC01EC55FF4F3491CB
:1003A000FC01E057FF4FE491EE23C9F0222339F01E
:1003B000233001F1A8F4213019F1223029F1F0E0C5
:1003C000EE0FFF1FE458FF4FA591B4918FB7F8943B
:1003D000EC91611126C030953E233C938FBF089568
:1003E0002730A9F02830C9F0243049F780918000E7
:1003F0008F7D03C0809180008F7780938000DFCF56
:1004000084B58F7784BDDBCF84B58F7DFBCF8091A2
:10041000B0008F778093B000D2CF8091B0008F7DF5
:10042000F9CF3E2BDACF2FB7F8946091EA017091A3
:10043000EB018091EC019091ED012FBF089585EDC6
:100440008093BC008091BC0084FDFCCF10923E02E2
:1004500008952091C201260F3327331F2132310521
:10046000ECF420913E02FC0190E080E0243069F041
:1004700082E00895A091C2012191AC014E555E4FDA
:10048000A40FB52FB11D2C930196861798F3809178
:10049000C201680F6093C20180E0089581E0089571
:1004A000E091400280913F02E81730F4F0E0EF5B0A
:1004B000FD4F808190E008958FEF9FEF0895909118
:1004C000400280913F022FEF3FEF981748F4E92F49
:1004D000F0E0EF5BFD4F208130E09F5F90934002A2
:1004E000C9010895CF92DF92EF92FF920F931F936D
:1004F000CF93DF937C01CB018A012091F20122236B
:1005000089F0EB016B01C40ED51ECC15DD0569F039
:100510006991D701ED91FC910190F081E02DC70127
:100520000995F3CF642F0E942902C801DF91CF9172
:100530001F910F91FF90EF90DF90CF900895CF9390
:10054000DF931F92CDB7DEB769832091F20122239A
:10055000F9F020911502203258F021E030E0FC0142
:100560003383228390E080E00F90DF91CF91089554
:100570008091F301E82FF0E0EC50FE4F99819083D9
:100580008F5F8093F3018093150281E090E0ECCFC0
:1005900061E0CE0101960E942902F7CF90E080E051
:1005A00008959C0180913E028111FCCF462F81E08D
:1005B00080933E0280933D029FEF90933C02109205
:1005C0003B02960F90933A02809339029091390240
:1005D000220F331F892F822B80933902809138029A
:1005E000813019F510923802809139028093BB0056
:1005F0008091BC0083FDF8CF85EC8093BC00809196
:100600003E028130E1F380913B02861710F4409165
:100610003B02A8E1B2E0E1E4F2E080E0841307C02D
:100620001092400280933F02089585EEE6CF9D919F
:1006300091938F5FF3CFFB0101900020E9F7319791
:10064000AF01461B570BDC01ED91FC910280F38159
:10065000E02D0994CF93DF93BC0181E692E00E94E4
:100660001B03EC0169E471E081E692E00E941B0348
:100670008C0F9D1FDF91CF9108950F931F93CF9300
:10068000DF93EC0188819981009759F02A813B81A1
:100690002617370730F081E0DF91CF911F910F913E
:1006A00008958B016F5F7F4F0E947E0B009759F07A
:1006B000998388831B830A832C813D81232B59F7DF
:1006C000FC011082E8CF80E0E7CFCF93DF93EC010D
:1006D00070E060E00E943D032881398181110FC0E4
:1006E0002115310519F0C9010E94F50A19821882F5
:1006F0001D821C821B821A82DF91CF9108951D8278
:100700001C826BE471E0C901DF91CF910C94440C21
:10071000EF92FF920F931F93CF93DF9341155105F3
:10072000B1F07B01EC010C811D81040F151FB80194
:100730000E943D03882361F0288139818C819D814D
:10074000B701820F931F0E94440C1D830C8381E02C
:10075000DF91CF911F910F91FF90EF9008951F921D
:100760000F920FB60F9211242F933F934F935F93E5
:100770006F937F938F939F93AF93BF93EF93FF9369
:1007800081E692E00E943801FF91EF91BF91AF9115
:100790009F918F917F916F915F914F913F912F9199
:1007A0000F900FBE0F901F9018951F920F920FB6CB
:1007B0000F9211242F938F939F93EF93FF93E091C8
:1007C0007102F09172028081E0917702F0917802DB
:1007D00082FD1BC0908180917A028F5F8F73209180
:1007E0007B02821741F0E0917A02F0E0EF59FD4F71
:1007F000958F80937A02FF91EF919F918F912F9126
:100800000F900FBE0F901F9018958081F4CF1F920C
:100810000F920FB60F9211242F933F938F939F93B4
:10082000AF93BF938091EA019091EB01A091EC010D
:10083000B091ED013091E90123E0230F2D3758F5F8
:100840000196A11DB11D2093E9018093EA019093C7
:10085000EB01A093EC01B093ED018091E501909143
:10086000E601A091E701B091E8010196A11DB11D3B
:100870008093E5019093E601A093E701B093E8012E
:10088000BF91AF919F918F913F912F910F900FBE8C
:100890000F901F90189526E8230F0296A11DB11DF9
:1008A000D2CF1F920F920FB60F9211242F933F9326
:1008B0004F935F936F937F938F939F93AF93BF9368
:1008C000EF93FF938091B900887F803609F44AC086
:1008D000F0F5883209F4A7C018F5803109F49BC0FF
:1008E000B8F4882309F4F9C0883009F494C0FF9162
:1008F000EF91BF91AF919F918F917F916F915F9198
:100900004F913F912F910F900FBE0F901F90189510
:10091000883109F488C0803251F780933C0214C0BA
:10092000803409F49DC040F48033B9F38833F9F67C
:1009300080933C0285ECB0C0803509F485C08835D1
:1009400009F496C0883499F60E941F02D0CF8839E6
:1009500009F48CC038F5883729F050F4883611F046
:10096000803729F683E080933E021092E40157C05D
:10097000883809F47BC0803919F0803809F0B7CF86
:100980008091E401803208F071C0E091E40181E0DF
:100990008E0F8093E4018091BB00F0E0EC53FE4F9A
:1009A00080833DC0803B39F0E0F4803A09F479C09F
:1009B000883A09F09CCF84E080933E021092C301F4
:1009C0001092C201E091F001F091F101099580913E
:1009D000C20181110FC081E08093C2011092A20177
:1009E00009C0803C09F4A6CF883C09F4A3CF883B1A
:1009F00009F07DCFE091C30181E08E0F8093C301A8
:100A0000F0E0EE55FE4F80818093BB009091C301D2
:100A10008091C20129C0809139028093BB0085EC8E
:100A20008093BC0064CF90913B0280913A0298176A
:100A300058F5E0913B0281E08E0F80933B02F0E09D
:100A4000E85EFD4F8081E9CFE0913B0281E08E0FAF
:100A500080933B028091BB00F0E0E85EFD4F808315
:100A600090913B0280913A029817C8F285E8D8CF5E
:100A7000E0913B0281E08E0F80933B028091BB00AE
:100A8000F0E0E85EFD4F808380913D0281115CCFF4
:100A900081E08093380284EA8093BC0010923E0289
:100AA00026CF85EC8093BC0010923E028091E40139
:100AB000803230F4E091E401F0E0EC53FE4F10821C
:100AC0006091E40170E0E091EE01F091EF0184ECBF
:100AD00091E009951092E4010ACF10923C0234CFC4
:100AE0001F920F920FB60F9211240F900FBE0F900E
:100AF0001F901895CF93DF93EC0170E060E00E94A7
:100B00003D032881398181110FC02115310519F06C
:100B1000C9010E94F50A198218821D821C821B825B
:100B20001A82DF91CF9108951D821C826BE471E0DF
:100B3000C901DF91CF910C94440CCF93DF93EC016A
:100B40001A8219821C821B821E821D8201960E94BB
:100B50007A0518861F821A8619861C861B86CE0186
:100B600007960E947A051E861D86188A1F861A8A95
:100B7000198ACE010D960E947A0563968AE0FE01DD
:100B800011928A95E9F7DF91CF910895E1E6F2E0BD
:100B90001382128288EE93E0A0E0B0E08483958314
:100BA000A683B7832AE131E03183208325EC30E04E
:100BB0003587248724EC30E03787268720EC30E027
:100BC000318B208B21EC30E0338B228B22EC30E018
:100BD000358B248B26EC30E0378B268B118E128ED2
:100BE000138E148EEEEFF2E01682178210861186B5
:100BF000128613861486158616861786108A118A21
:100C0000128A138A148A158AE6E4F3E013821282A8
:100C100084839583A683B7838CE291E0918380835C
:100C200083E793E00E949D0586E593E00E949D0581
:100C30000E941302609352037093530380935403F2
:100C4000909355030895CF93DF93CDB7DEB72C97DC
:100C50000FB6F894DEBF0FBECDBF789484B5826026
:100C600084BD84B5816084BD85B5826085BD85B550
:100C7000816085BD80916E00816080936E001092CE
:100C80008100809181008260809381008091810049
:100C900081608093810080918000816080938000DA
:100CA0008091B10084608093B1008091B000816038
:100CB0008093B00080917A00846080937A00809164
:100CC0007A00826080937A0080917A0081608093BC
:100CD0007A0080917A00806880937A001092C10037
:100CE0001092420310924303109244031092450362
:100CF000109200031092010310920203109203035A
:100D00000E9413026B017C014B015C0128EB820EF7
:100D10002BE0921EA11CB11C0E9413026C157D05D4
:100D20008E059F0528F086169706A806B906A0F737
:100D300081E692E090934103809340030E948800F3
:100D40000E941302609300037093010380930203D7
:100D5000909303036AE371E0809140039091410313
:100D60000E941B030E9413026B017C014B015C017A
:100D70003AE0830E911CA11CB11C0E9413026C1559
:100D80007D058E059F0528F086169706A806B906EC
:100D9000A0F781E080931403E6EAF0E02491E2E911
:100DA000F0E08491882399F090E0880F991FFC016E
:100DB000EA57FF4FA591B491FC01E458FF4F85918C
:100DC00094918FB7F894EC91E22BEC938FBF61E094
:100DD00082E00E94C7010E9488008CE491E00E949A
:100DE0002A0385E791E00E942A038BE491E00E94A8
:100DF0002A031092400210923F021092F3011092C7
:100E0000150210923E0281E080933D02109238025A
:100E100061E082E10E94C70161E083E10E94C701B5
:100E20008091B9008E7F8093B9008091B9008D7F49
:100E30008093B90088E48093B80085E48093BC0077
:100E400084EE90E09093F1018093F00185EE90E0C4
:100E50009093EF018093EE01CE0101961C01F4EB1B
:100E6000CF2ED12CE12CF12CA8EE4A2EA3E05A2E45
:100E7000612C712C10921702109216028AE793E0EF
:100E80000E94650381E692E00E9418011816190677
:100E9000A4F581E692E00E94F6008093730300912E
:100EA0001602109117028C3259F48AE793E00E94DF
:100EB00065030F5F1F4F1093170200931602E2CFD6
:100EC00089831A8241E050E0B1018AE793E00E94F1
:100ED000880380917A0390917B03009751F00E94E0
:100EE0005409000F111FF801ED58FC4F748B638BF0
:100EF000C9CF60E070E0CB01F4CF81E692E00E94C0
:100F0000A701109217021092160263E070E081E0D0
:100F100090E00E94D10280913F0290914002891B93
:100F2000990B18161906F4F4009116021091170285
:100F300086E493E00E945F02F801EE0FFF1FEA5A79
:100F4000FC4F948B838B0F5F1F4F109317020093FE
:100F5000160240924A0350924B0360924C037092E7
:100F60004D03D9CF61E070E082E090E00E94D102B1
:100F700080913F0290914002891B990B1816190627
:100F80008CF486E493E00E945F0290937003809358
:100F90006F0340924A0350924B0360924C0370924D
:100FA0004D03E6CF91E09093F201909314021092DA
:100FB000F301109215026091860386E493E00E948B
:100FC0009F0290911502913208F03EC080913E023E
:100FD0008111FCCFA2E0A0933E02B1E0B0933D02AC
:100FE0002FEF20933C0210923B0290933A02A4EF21
:100FF000B1E0E8E1F2E0981366C010923902809106
:10100000390282608093390280913802813009F080
:101010005EC010923802809139028093BB008091AB
:10102000BC0083FDF8CF85EC8093BC0080913E022C
:101030008230E1F380913C028F3F31F080913C029D
:10104000803211F080913C021092F301109215024F
:101050001092F20180E893E00E946503109217025B
:101060001092160280911602909117028430910519
:1010700084F5880F991FFC01EA5AFC4F4AE0B10140
:10108000838994890E947B09F10101900020E9F78E
:101090003197AF0142195309B10180E893E00E94F2
:1010A000880341E050E06EE971E080E893E00E943F
:1010B000880380911602909117020196909317026F
:1010C00080931602CFCF2D9121938F5F94CF85EE21
:1010D000ABCF8090520390905303A0905403B090F4
:1010E000550338EE830E33E0931EA11CB11C0E9401
:1010F000130286169706A806B906E0F44091840309
:1011000050918503609180037091810381E692E0A4
:101110000E94B00069E471E081E692E00E941B0346
:101120000E941302609352037093530380935403FD
:101130009093550300918C0310918D0380908A0346
:1011400090908B03A0918803B091890328EE33E03F
:101150000E944C0AA70196010E94E709DA01C90121
:1011600084549D4FAF4FBF4F89879A87AB87BC8709
:10117000909301018093000128EE33E0D4010E9496
:101180004C0AA70196010E94E70949015A019CEB0C
:10119000890E92E0991EA11CB11C909203018092CD
:1011A000020128EE33E0D8010E944C0AA701960103
:1011B0000E94E709BA01A90144545D4F6F4F7F4F68
:1011C000509305014093040188EE95E3A985BA8503
:1011D0008A1B9B0B88199909841B950B82309105FA
:1011E00038F0880F991F880F991F05970197F1F71D
:1011F0001092170210921602009116021091170217
:101200000730110524F560E082E00E94C7018BEAF7
:1012100094E00197F1F761E082E00E94C701F801D4
:10122000EE0FFF1FE050FF4F8081918182309105CA
:1012300038F0880F991F880F991F05970197F1F7CC
:101240000F5F1F4F1093170200931602D5CF20E0B7
:1012500030E0232B09F40ECE0E942401882309F4E8
:1012600009CE0E94000006CECF93DF93C6E5D3E0FF
:101270008D859E850E94F50A8F8198850E94F50ACA
:1012800089819A810E94F50AC3E7D3E08D859E8506
:101290000E94F50A8F8198850E94F50A89819A81BA
:1012A000DF91CF910C94F50A1F93FC0199278827B1
:1012B000BC01E89411911032E9F3193010F01E309E
:1012C000C8F31B3251F01D3249F4689406C00E94E5
:1012D0008609610F711D811D911D119110531A30E6
:1012E000B0F33EF490958095709561957F4F8F4F48
:1012F0009F4F1F910895BB274A3031F4992322F460
:10130000BDE2909581959F4F0C949C09592F482FD1
:10131000372F262F660F771F881F991F660F771F9D
:10132000881F991F620F731F841F951F660F771FF9
:10133000881F991F0895BB27FB015527AA27880FEF
:10134000991FAA1FA41710F0A41B83955051B9F739
:10135000A05DAA3308F0A95DA193009779F7B111B8
:10136000B1931192CB010C94B509DC01FC01672FFC
:1013700071917723E1F7329704C07C916D9370836C
:101380006291AE17BF07C8F30895A1E21A2EAA1BF7
:10139000BB1BFD010DC0AA1FBB1FEE1FFF1FA21725
:1013A000B307E407F50720F0A21BB30BE40BF50B22
:1013B000661F771F881F991F1A9469F760957095AB
:1013C000809590959B01AC01BD01CF010895052E3C
:1013D00097FB1EF400940E94FE0957FD07D00E945F
:1013E000C50907FC03D04EF40C94FE0950954095B6
:1013F000309521953F4F4F4F5F4F089590958095C1
:10140000709561957F4F8F4F9F4F08952F923F9218
:101410004F925F926F927F928F929F92AF92BF9204
:10142000CF92DF92EF92FF920F931F93CF93DF93B0
:10143000CDB7DEB7CA1BDB0B0FB6F894DEBF0FBE0D
:10144000CDBF09942A88398848885F846E847D845A
:101450008C849B84AA84B984C884DF80EE80FD805C
:101460000C811B81AA81B981CE0FD11D0FB6F894D2
:10147000DEBF0FBECDBFED010895A29FB001B39FA7
:10148000C001A39F700D811D1124911DB29F700D8D
:10149000811D1124911D08950E943D0AB7FF0895F2
:1014A000821B930B0895EE0FFF1F0590F491E02D22
:1014B00009940F931F93CF93DF938230910510F41B
:1014C00082E090E0E0919203F091930330E020E01D
:1014D000B0E0A0E0309799F42115310509F44AC035
:1014E000281B390B24303105D8F58A819B81611581
:1014F000710589F1FB0193838283FE0111C0408154
:1015000051810281138148175907E0F048175907A4
:1015100099F4109761F012960C93129713961C93FE
:101520003296CF01DF91CF911F910F9108950093D3
:10153000920310939303F4CF2115310551F0421714
:10154000530738F0A901DB019A01BD01DF01F80161
:10155000C1CFEF01F9CF9093930380939203CDCF46
:10156000FE01E20FF31F81939193225031093983D9
:101570002883D7CF2091900330919103232B41F4FE
:101580002091120130911301309391032093900325
:1015900020911001309111012115310541F42DB731
:1015A0003EB74091140150911501241B350BE09179
:1015B0009003F0919103E217F307A0F42E1B3F0B69
:1015C0002817390778F0AC014E5F5F4F24173507B5
:1015D00048F04E0F5F1F5093910340939003819307
:1015E00091939FCFF0E0E0E09CCFCF93DF93009703
:1015F000E9F0FC01329713821282A0919203B0911C
:101600009303ED0130E020E01097A1F420813181B7
:10161000820F931F2091900330919103281739076F
:1016200009F061C0F0939103E0939003DF91CF91B3
:101630000895EA01CE17DF07E8F54A815B819E0134
:1016400041155105B1F7E901FB83EA8349915991AD
:10165000C40FD51FEC17FD0761F4808191810296BC
:10166000840F951FE90199838883828193819B83ED
:101670008A83F0E0E0E012968D919C911397009799
:10168000B9F52D913C911197CD010296820F931FD0
:1016900020919003309191032817390739F630973C
:1016A00051F51092930310929203B0939103A0937B
:1016B0009003BCCFD383C28340815181840F951F97
:1016C000C817D90761F44E5F5F4F88819981480F31
:1016D000591F518340838A819B8193838283211583
:1016E000310509F0B0CFF0939303E09392039ECFBE
:1016F000FD01DC01C0CF13821282D7CFB0E0A0E0A1
:10170000E4E8FBE00C94080A8C01009751F4CB014B
:101710000E94590A8C01C801CDB7DEB7E0E10C94F4
:10172000240AFC01E60FF71F9C0122503109E21741
:10173000F30708F49DC0D901CD91DC911197C6172C
:10174000D70798F0C530D10530F3CE01049786173E
:10175000970708F3C61BD70B2297C193D1936D93BC
:101760007C93CF010E94F50AD6CF5B01AC1ABD0A6B
:101770004C018C0E9D1EA0919203B0919303512CAD
:10178000412CF12CE12C109731F580919003909130
:1017900091038815990509F05CC04616570608F0B4
:1017A00058C08091100190911101009741F48DB7BC
:1017B0009EB74091140150911501841B950BE817B9
:1017C000F90708F055C0F0939103E0939003F901F5
:1017D00071836083A0CF8D919C91119712966C902C
:1017E000129713967C901397A815B90559F56C01BB
:1017F00042E0C40ED11CCA14DB0420F1AC014A192A
:101800005B09DA011296159780F062827382518328
:101810004083D9016D937C93E114F10471F0D701F9
:101820001396FC93EE93129776CF22968C0F9D1F02
:10183000F90191838083F301EFCFF0939303E09359
:10184000920369CF4816590608F42C017D01D30193
:101850009ACFCB010E94590A7C01009749F0AE0152
:10186000B8010E943B0CC8010E94F50A870153CFC2
:1018700010E000E050CFFB01DC0102C001900D92AE
:1018800041505040D8F70895FB01DC0101900D92C2
:101890000020E1F7089510E0CDE5D0E004C0FE019E
:1018A0000E94530A2196CE35D107C9F7F894FFCF8D
:1018B000B004B004B004B004B004B004B004B00488
:1018C000000094038000000000005A01B000E7000F
:1018D000A7011801F6000A01000000009F02720231
:1018E000CE02E600DD005F025002564D4450565FC6
:1018F000317C315F564D4450560D0A002D2D2D2D53
:101900002D2D2048656C6C6F2C20696D20726564EC
:101910007920666F722072756D626C65202D2D2D99
:101920002D2D2D2D002D2D2D2D2D2D2D2042617590
:1019300064726174652053657269616C3A2031315B
:1019400035323030202D2D2D2D2D2D2D2D002C001C
:107E0000112484B714BE81FFF0D085E080938100F7
:107E100082E08093C00088E18093C10086E0809377
:107E2000C20080E18093C4008EE0C9D0259A86E02C
:107E300020E33CEF91E0309385002093840096BBD3
:107E4000B09BFECF1D9AA8958150A9F7CC24DD24C4
:107E500088248394B5E0AB2EA1E19A2EF3E0BF2EE7
:107E6000A2D0813461F49FD0082FAFD0023811F036
:107E7000013811F484E001C083E08DD089C08234E0
:107E800011F484E103C0853419F485E0A6D080C0E4
:107E9000853579F488D0E82EFF2485D0082F10E0AE
:107EA000102F00270E291F29000F111F8ED06801E7
:107EB0006FC0863521F484E090D080E0DECF843638
:107EC00009F040C070D06FD0082F6DD080E0C81688
:107ED00080E7D80618F4F601B7BEE895C0E0D1E017
:107EE00062D089930C17E1F7F0E0CF16F0E7DF06D8
:107EF00018F0F601B7BEE89568D007B600FCFDCFD4
:107F0000A601A0E0B1E02C9130E011968C91119780
:107F100090E0982F8827822B932B1296FA010C0160
:107F200087BEE89511244E5F5F4FF1E0A038BF0790
:107F300051F7F601A7BEE89507B600FCFDCF97BE46
:107F4000E89526C08437B1F42ED02DD0F82E2BD052
:107F50003CD0F601EF2C8F010F5F1F4F84911BD097
:107F6000EA94F801C1F70894C11CD11CFA94CF0C13
:107F7000D11C0EC0853739F428D08EE10CD085E9AC
:107F80000AD08FE07ACF813511F488E018D01DD067
:107F900080E101D065CF982F8091C00085FFFCCF94
:107FA0009093C60008958091C00087FFFCCF809118
:107FB000C00084FD01C0A8958091C6000895E0E648
:107FC000F0E098E1908380830895EDDF803219F02E
:107FD00088E0F5DFFFCF84E1DECF1F93182FE3DFCA
:107FE0001150E9F7F2DF1F91089580E0E8DFEE27F6
:047FF000FF270994CA
:027FFE00040479
:0400000300007E007B
:00000001FF